:0300000002009566
:1000130075A0FF116FD292308BFDC292116F75A044
:1000230000C28BC28A32D2A0115BC2A0D2A1115BE3
:10003300C2A1D2A2115BC2A2D2A3115BC2A3D2A45A
:10004300115BC2A4D2A5115BC2A5D2A6115BC2A645
:10005300D2A7115BC2A780CE7802C28E758D3C7584
:100063008BB0D28E308FFDC28FD8EF227F05C28C2A
:10007300758C3C758AB0D28C308DFDC28DDFEF223A
:0E00950075A88475891175A000C29202002919
:00000001FF
